:020000040000FA
:0400000080318128A2
:100008007E1480312E000F1C0A280B287F2823001D
:100018001012101B102811281528901F14281528B5
:100028001C280C08F5007508F4001013901310161E
:100038008F1A1F28202869280F192328242869289F
:100048000F1C2728282824280C08F5007508F30019
:1000580010160F1C302831282D280C08F5007508BB
:10006800F200BC307206031D3A283B283D282000C8
:100078000C14CE307206031D422843284528200060
:100088008C14BC307306031D4A284B284D282000C9
:100098000C15CE307306031D52285328552820000E
:1000A8008C1520000C1C59285A287D288C185D288E
:1000B8005E287D280C19612862287D288C1D6528FA
:1000C80066287D28230010167D288F1A6C286D2835
:1000D8007D280F1D702871287D280C08F5007508EB
:1000E800F4000F10DB308C0010160F187C287D28C8
:1000F80079282E000F107E10090080318328F00126
:10010800F101F201F301F4017E1020008031BB28D7
:1001180020009601970198019101FF309200FF306D
:100128009300E7303E00CE00FF30C300B801E50180
:10013800C401B901CF01BA01C501D001FF30BB002C
:10014800FF30C600FF30D100BC01FF30C700FF30D0
:10015800D2000830E80013303D00C50014303E00DE
:10016800A3001530A40014303D00C60008008131FA
:100178003B21803167308031FF208031813130214F
:10018800803181315C218031B53081311621803157
:1001980000308031E2208031F9007908F0008131A7
:1001A80056218031DB307006031DDB28DC28DF2870
:1001B80020000C178C13DF2880318128F70081314B
:1001C800242180312300911581312421803123009D
:1001D8000C08F6007608F800813124218031770870
:1001E8000319F728FA2823009116FC2823009112F6
:1001F800111678080800F600C03023008F00763505
:100208008D00FF308E002630900001309100920161
:1002180012168C018B170B172E000F108F10191444
:1002280099140800F60081312421813176082300D1
:100238008C002E000F1C212922291D290F100800CF
:1002480023000F1928292929242911081F39031DDA
:100258002E292F29242908002830230090009101F5
:100268008F170F1706308D00FF308E000800813180
:100278004E21813180318C2081318131452181317C
:100288000800603031008D008F0191010230930029
:10029800920108002F0096019701980199019A018F
:1002A8009B010800813124218131230011150800A8
:0C02B80081312421813123001114080041
:00000001FF
