:020000040000FA
:0400000080315C28C7
:100008007E1480312E000F1C0A280B285A28230042
:100018001012101B102811281528901F14281528B5
:100028001C280C08F8007808F70010139013101615
:100038008F1A1F28202840280F19232824284028F1
:100048000F1C2728282824280C08F8007808F60010
:1000580010160F1C302831282D280C08F8007808B5
:10006800F500BC307506031D3A283B2858282000A7
:100078000C142300101658288F1A4328442858288F
:100088000F1D4728482858280C08F8007808F7005A
:100098000F105A308C0010160F1853285428502867
:1000A80020008C14F401F40A2E000F107E100900B1
:1000B80080315E28F001F101F201F301F401F5014C
:1000C800F601F7017E10200080319A2820008C016B
:1000D8009601970198019101FF309200FF3093003B
:1000E800E7303E00CE00FF30C300B801E501C4018F
:1000F800B901CF01BA01C501D001FF30BB00FF3003
:10010800C600FF30D100BC01FF30C700FF30D2006D
:100118000830E80013303D00C50014303E00A3004D
:100128001530A40014303D00C60008008031CF20EF
:10013800803120008C0167308031B8208031A728B9
:1001480020008C158C1123008F19AB28AC28A4280B
:10015800B02820000C160C1223000F1AB428B5285A
:10016800AD28A72880315C28F9008B170B172E00C3
:100178000F108F1019149914C03023008F0079358F
:100188008D00FF308E0036309000013091009201D2
:1001980012168C0108008031E220803180316A20FB
:1001A80080318031D92080310800603031008D00E5
:1001B8008F01910102309300920108002F009601EF
:0C01C8009701980199019A019B01080021
:00000001FF
