:020000040000FA
:0400000080315C28C7
:100008007E1480312E000F1C0A280B285A28230042
:100018001012101B102811281528901F14281528B5
:100028001C280C08F8007808F70010139013101615
:100038008F1A1F28202840280F19232824284028F1
:100048000F1C2728282824280C08F8007808F60010
:1000580010160F1C302831282D280C08F8007808B5
:10006800F500BC307506031D3A283B2858282000A7
:100078000C142300101658288F1A4328442858288F
:100088000F1D4728482858280C08F8007808F7005A
:100098000F105A308C0010160F1853285428502867
:1000A80020008C14F401F40A2E000F107E100900B1
:1000B80080315E28F001F101F201F301F401F5014C
:1000C800F601F7017E10200080319A2820008C016B
:1000D8009601970198019101FF309200FF3093003B
:1000E800E7303E00CE00FF30C300B801E501C4018F
:1000F800B901CF01BA01C501D001FF30BB00FF3003
:10010800C600FF30D100BC01FF30C700FF30D2006D
:100118000830E80013303D00C50014303E00A3004D
:100128001530A40014303D00C600080081311B21A1
:10013800803120008C0167308031DF208031BA287F
:1001480020008C1581311021803181313C21803192
:10015800B5308031F620803100308031C2208031C6
:10016800FC007C08F20081313621803174030319C8
:10017800BE28BF28A428BA2880315C28FA0081311B
:10018800042180312300911581310421803123001D
:100198000C08F9007908FB008131042180317A08C4
:1001A8000319D728DA2823009116DC282300911296
:1001B80011167B080800F900C03023008F0079353C
:1001C8008D00FF308E003630900001309100920192
:1001D80012168C018B170B172E000F108F10191485
:1001E80099140800F900813104218031790823002D
:1001F8008C002E000F1C01290229FD280F10080071
:1002080023000F1908290929042911081F39031D7A
:100218000E290F2904290800283023009000910195
:100228008F170F1706308D00FF308E0008008131C0
:100238002E21813180316A2081318131252181311E
:100248000800603031008D008F0191010230930069
:10025800920108002F0096019701980199019A01CF
:100268009B01080081310421813123001115080008
:0C027800813104218131230011140800A1
:00000001FF
