:020000040000FA
:0400000080316328C0
:100008007E1480312E000F1C0A280B28612823003B
:100018001012101B102811281528901F14281528B5
:100028001D280C08F8007808F70010139013101614
:100038005F288F1A2028212841280F1924282528CD
:1000480041280F1C2828292825280C08F80078089A
:10005800F60010160F1C312832282E280C08F8003C
:100068007808F500BC307506031D3B283C285F283E
:1000780020000C14230010165F288F1A44284528E6
:100088005F280F1D482849285F28BC307506031DC6
:100098004E284F285F280C08F8007808F7000F1042
:1000A8005A308C0010160F185A285B285728200041
:1000B8008C14F401F40A2E000F107E100900803110
:1000C8006528F001F101F201F301F401F501F601EF
:1000D800F7017E1020008031712881313C21803168
:1000E8007928673081310B218031740803197D2804
:1000F8007E2875289E288031F320803181315D214A
:100108008031B53081312221803100308031D620D4
:100118008031FC007C08F200813157218031DB30CE
:100128007206031D982899289C2820000C169E28E2
:1001380020008C1674030319A228A3287F28A3285B
:100148008031632820008C01960197019801910164
:10015800FF309200FF309300E7303E00CE00FF30C2
:10016800C300B801E501C401B901CF01BA01C50155
:10017800D001FF30BB00FF30C600FF30D100BC010A
:10018800FF30C700FF30D2000830E80013303D00D0
:10019800C50014303E00A3001530A40014303D0003
:1001A800C6000800FA008131302180312300911502
:1001B80081313021803123000C08F9007908FB00D7
:1001C8008131302180317A080319EB28EE28230089
:1001D8009116F0282300911211167B0808008B1342
:1001E8000B132E000F148F1419109910230090016F
:1001F80028309000910192018F018C018F170F1701
:1002080006308D00FF308E0020008C150800F900A4
:100218008B170B172E000F108F1019149914C0305C
:1002280023008F0079358D00FF308E003630900026
:1002380081309100920112168C010800F900813179
:1002480030218131790823008C002E000F1C2D29C4
:100258002E2929290F10080023000F1934293529C0
:10026800302911081F39031D3A293B293029080074
:1002780081314F2181318031A62081318131462160
:1002880081310800603031008D008F01910102300A
:100298009300920108002F00960197019801990197
:1002A8009A019B0108008131302181312300111509
:0E02B80008008131302181312300111408002B
:00000001FF
