:020000040000FA
:0400000080316128C2
:100008007E1480312E000F1C0A280B285F2823003D
:100018001012101B102811281528901F14281528B5
:100028001C280C08F5007508F4001013901310161E
:100038008F1A1F28202845280F19232824284528E7
:100048000F1C2728282824280C08F5007508F30019
:1000580010160F1C302831282D280C08F5007508BB
:10006800F200BC307206031D3A283B283D282000C8
:100078000C1420000C1C412842285D28230010166F
:100088005D288F1A482849285D280F1D4C284D28BF
:100098005D280C08F5007508F4000F10DB308C00A3
:1000A80010160F1858285928552820008C14F101CB
:1000B800F10A2E000F107E10090080316328F0012C
:1000C800F101F201F301F4017E10200080319B2838
:1000D80020009601970198019101FF309200FF30AE
:1000E8009300E7303E00CE00FF30C300B801E501C1
:1000F800C401B901CF01BA01C501D001FF30BB006D
:10010800FF30C600FF30D100BC01FF30C700FF3010
:10011800D2000830E80013303D00C50014303E001E
:10012800A3001530A40014303D00C600080081313A
:100138001A21803167308031DE208031B9282000D3
:100148008C1581310F21803181313B218031B530CF
:100158008031F520803100308031C1208031F900B4
:100168007908F00081313521803171030319BD28E8
:10017800BE28A328B92880316128F70081310321DE
:1001880080312300911581310321803123000C082F
:10019800F6007608F80081310321803177080319C9
:1001A800D628D92823009116DB282300911211168E
:1001B80078080800F600C03023008F0076358D00DF
:1001C800FF308E0026309000013091009201121607
:1001D8008C018B170B172E000F108F101914991400
:1001E8000800F600813103218031760823008C0055
:1001F8002E000F1C00290129FC280F1008002300DD
:100208000F1907290829032911081F39031D0D296A
:100218000E290329080028302300900091018F1728
:100228000F1706308D00FF308E00080081312D2118
:10023800813180316C208131813124218131080064
:10024800603031008D008F019101023093009201DE
:1002580008002F0096019701980199019A019B01C6
:1002680008008131032181312300111508008131F3
:0A0278000321813123001114080056
:00000001FF
